{
  "contractName": "MaintenanceReport",
  "abi": [
    {
      "inputs": [],
      "payable": false,
      "stateMutability": "nonpayable",
      "type": "constructor"
    },
    {
      "anonymous": false,
      "inputs": [
        {
          "indexed": false,
          "name": "no_problem",
          "type": "uint256"
        },
        {
          "indexed": false,
          "name": "room_name",
          "type": "string"
        }
      ],
      "name": "ProblemAdded",
      "type": "event"
    },
    {
      "anonymous": false,
      "inputs": [
        {
          "indexed": false,
          "name": "no_problem",
          "type": "uint256"
        },
        {
          "indexed": false,
          "name": "addr",
          "type": "address"
        }
      ],
      "name": "Incentive",
      "type": "event"
    },
    {
      "constant": true,
      "inputs": [
        {
          "name": "addr",
          "type": "address"
        }
      ],
      "name": "getToken",
      "outputs": [
        {
          "name": "",
          "type": "uint256"
        }
      ],
      "payable": false,
      "stateMutability": "view",
      "type": "function"
    },
    {
      "constant": false,
      "inputs": [
        {
          "name": "name",
          "type": "string"
        }
      ],
      "name": "getRoomCondition",
      "outputs": [
        {
          "name": "",
          "type": "uint256"
        },
        {
          "name": "",
          "type": "string"
        }
      ],
      "payable": false,
      "stateMutability": "nonpayable",
      "type": "function"
    },
    {
      "constant": false,
      "inputs": [
        {
          "name": "addr",
          "type": "address"
        },
        {
          "name": "room_name",
          "type": "string"
        },
        {
          "name": "equipment",
          "type": "string"
        },
        {
          "name": "problem",
          "type": "string"
        }
      ],
      "name": "reportRoom",
      "outputs": [],
      "payable": false,
      "stateMutability": "nonpayable",
      "type": "function"
    }
  ],
  "bytecode": "0x608060405234801561001057600080fd5b5060006003819055506000600160405180807f4d4130303100000000000000000000000000000000000000000000000000000081525060050190509081526020016040518091039020600001819055506040805190810160405280600481526020017f4f70656e00000000000000000000000000000000000000000000000000000000815250600160405180807f4d413030310000000000000000000000000000000000000000000000000000008152506005019050908152602001604051809103902060010190805190602001906100ea929190610366565b506000600160405180807f4d4130303200000000000000000000000000000000000000000000000000000081525060050190509081526020016040518091039020600001819055506040805190810160405280600481526020017f4f70656e00000000000000000000000000000000000000000000000000000000815250600160405180807f4d413030320000000000000000000000000000000000000000000000000000008152506005019050908152602001604051809103902060010190805190602001906101bc929190610366565b506000600160405180807f4d4130303300000000000000000000000000000000000000000000000000000081525060050190509081526020016040518091039020600001819055506040805190810160405280600481526020017f4f70656e00000000000000000000000000000000000000000000000000000000815250600160405180807f4d4130303300000000000000000000000000000000000000000000000000000081525060050190509081526020016040518091039020600101908051906020019061028e929190610366565b506000600160405180807f4d4130303400000000000000000000000000000000000000000000000000000081525060050190509081526020016040518091039020600001819055506040805190810160405280600481526020017f4f70656e00000000000000000000000000000000000000000000000000000000815250600160405180807f4d41303034000000000000000000000000000000000000000000000000000000815250600501905090815260200160405180910390206001019080519060200190610360929190610366565b5061040b565b828054600181600116156101000203166002900490600052602060002090601f016020900481019282601f106103a757805160ff19168380011785556103d5565b828001600101855582156103d5579182015b828111156103d45782518255916020019190600101906103b9565b5b5090506103e291906103e6565b5090565b61040891905b808211156104045760008160009055506001016103ec565b5090565b90565b61096e8061041a6000396000f300608060405260043610610057576000357c0100000000000000000000000000000000000000000000000000000000900463ffffffff168063597704381461005c578063bc08cef8146100b3578063f23521a51461019c575b600080fd5b34801561006857600080fd5b5061009d600480360381019080803573ffffffffffffffffffffffffffffffffffffffff1690602001909291905050506102b1565b6040518082815260200191505060405180910390f35b3480156100bf57600080fd5b5061011a600480360381019080803590602001908201803590602001908080601f01602080910402602001604051908101604052809392919081815260200183838082843782019150505050505091929192905050506102f9565b6040518083815260200180602001828103825283818151815260200191508051906020019080838360005b83811015610160578082015181840152602081019050610145565b50505050905090810190601f16801561018d5780820380516001836020036101000a031916815260200191505b50935050505060405180910390f35b3480156101a857600080fd5b506102af600480360381019080803573ffffffffffffffffffffffffffffffffffffffff169060200190929190803590602001908201803590602001908080601f0160208091040260200160405190810160405280939291908181526020018383808284378201915050505050509192919290803590602001908201803590602001908080601f0160208091040260200160405190810160405280939291908181526020018383808284378201915050505050509192919290803590602001908201803590602001908080601f01602080910402602001604051908101604052809392919081815260200183838082843782019150505050505091929192905050506105af565b005b60008060008373ffffffffffffffffffffffffffffffffffffffff1673ffffffffffffffffffffffffffffffffffffffff168152602001908152602001600020549050919050565b6000606060046001846040518082805190602001908083835b6020831015156103375780518252602082019150602081019050602083039250610312565b6001836020036101000a038019825116818451168082178552505050505050905001915050908152602001604051809103902060000154111561042d576040805190810160405280600681526020017f436c6f73656400000000000000000000000000000000000000000000000000008152506001846040518082805190602001908083835b6020831015156103e257805182526020820191506020810190506020830392506103bd565b6001836020036101000a0380198251168184511680821785525050505050509050019150509081526020016040518091039020600101908051906020019061042b92919061089d565b505b6001836040518082805190602001908083835b6020831015156104655780518252602082019150602081019050602083039250610440565b6001836020036101000a0380198251168184511680821785525050505050509050019150509081526020016040518091039020600001546001846040518082805190602001908083835b6020831015156104d457805182526020820191506020810190506020830392506104af565b6001836020036101000a0380198251168184511680821785525050505050509050019150509081526020016040518091039020600101808054600181600116156101000203166002900480601f01602080910402602001604051908101604052809291908181526020018280546001816001161561010002031660029004801561059f5780601f106105745761010080835404028352916020019161059f565b820191906000526020600020905b81548152906001019060200180831161058257829003601f168201915b5050505050905091509150915091565b8260026000600354815260200190815260200160002060000190805190602001906105db92919061089d565b5081600260006003548152602001908152602001600020600101908051906020019061060892919061089d565b5080600260006003548152602001908152602001600020600201908051906020019061063592919061089d565b507f9781064e434d46c068e8de18d569c2e06fdd11841b86548672f326659b2dfda9600354846040518083815260200180602001828103825283818151815260200191508051906020019080838360005b838110156106a1578082015181840152602081019050610686565b50505050905090810190601f1680156106ce5780820380516001836020036101000a031916815260200191505b50935050505060405180910390a1600180846040518082805190602001908083835b60208310151561071557805182526020820191506020810190506020830392506106f0565b6001836020036101000a03801982511681845116808217855250505050505090500191505090815260200160405180910390206000016000828254019250508190555060046001846040518082805190602001908083835b602083101515610792578051825260208201915060208101905060208303925061076d565b6001836020036101000a03801982511681845116808217855250505050505090500191505090815260200160405180910390206000015411151561088b57600a6000808673ffffffffffffffffffffffffffffffffffffffff1673ffffffffffffffffffffffffffffffffffffffff168152602001908152602001600020600082825401925050819055507f7bcea1202415ca3eafacfa7a08e4ca6bed1ba371c44c540af5d800e3942dab4160035485604051808381526020018273ffffffffffffffffffffffffffffffffffffffff1673ffffffffffffffffffffffffffffffffffffffff1681526020019250505060405180910390a15b60016003540160038190555050505050565b828054600181600116156101000203166002900490600052602060002090601f016020900481019282601f106108de57805160ff191683800117855561090c565b8280016001018555821561090c579182015b8281111561090b5782518255916020019190600101906108f0565b5b509050610919919061091d565b5090565b61093f91905b8082111561093b576000816000905550600101610923565b5090565b905600a165627a7a7230582093e896d375642bbe6fdab5903abd34399a67a6694a136872695e408ce2f39efb0029",
  "source": "pragma solidity ^0.4.25;\r\n\r\ncontract MaintenanceReport{\r\n        \r\n    struct Room {\r\n        uint number_report;\r\n        string status_room;\r\n    }\r\n    \r\n    struct ReportRoom {\r\n        string room_name;\r\n        string equip;\r\n        string problem;\r\n    }\r\n    \r\n    mapping(address=>uint256) balance_token;\r\n    \r\n    mapping(string=>Room) Rooms;\r\n    \r\n    mapping(uint=>ReportRoom) ReportRooms;\r\n    uint no_problem;\r\n    \r\n    event ProblemAdded(uint no_problem, string room_name);\r\n    event Incentive(uint no_problem, address addr);\r\n    \r\n    constructor() public{\r\n        \r\n        no_problem = 0;\r\n        \r\n        Rooms[\"MA001\"].number_report = 0;\r\n        Rooms[\"MA001\"].status_room = \"Open\";\r\n        \r\n        Rooms[\"MA002\"].number_report = 0;\r\n        Rooms[\"MA002\"].status_room = \"Open\";\r\n        \r\n        Rooms[\"MA003\"].number_report = 0;\r\n        Rooms[\"MA003\"].status_room = \"Open\";\r\n        \r\n        Rooms[\"MA004\"].number_report = 0;\r\n        Rooms[\"MA004\"].status_room = \"Open\";\r\n        \r\n    }\r\n    \r\n    function getToken(address addr) public view returns(uint256) {\r\n        return balance_token[addr];\r\n    }\r\n        \r\n    function getRoomCondition(string name) public returns (uint, string)\r\n    {\r\n        if (Rooms[name].number_report > 4)\r\n        {\r\n            Rooms[name].status_room = \"Closed\";\r\n        }\r\n        return (Rooms[name].number_report, Rooms[name].status_room);\r\n    }\r\n    \r\n    function reportRoom(address addr, string room_name, string equipment, string problem) public {\r\n        ReportRooms[no_problem].room_name = room_name;\r\n        ReportRooms[no_problem].equip = equipment;\r\n        ReportRooms[no_problem].problem = problem;\r\n        \r\n        emit ProblemAdded(no_problem, room_name);\r\n        \r\n        \r\n        Rooms[room_name].number_report += 1;\r\n        \r\n        if (Rooms[room_name].number_report <= 4)\r\n        {\r\n            balance_token[addr] += 10;\r\n            emit Incentive(no_problem, addr);\r\n        }\r\n        \r\n        no_problem = no_problem+1;\r\n        \r\n    }\r\n    \r\n}",
  "sourcePath": "D:\\Dexon Project\\DemoProjectDexon\\contracts\\MaintenanceReport.sol",
  "compiler": {
    "name": "solc",
    "version": "0.4.25+commit.59dbf8f1.Emscripten.clang"
  },
  "schemaVersion": "2.0.2",
  "updatedAt": "2019-02-15T17:21:18.214Z"
}